:100000000C942A000C9447000C9447000C94470071
:100010000C9447000C9447000C9447000C94470044
:100020000C9447000C9447000C9442030C94070373
:100030000C9447000C9447000C9447000C94470024
:100040000C9447000C9447000C9447000C94470014
:100050000C94470011241FBECFE5D8E0DEBFCDBF12
:1000600010E0A0E6B0E0E6ECFFE002C005900D92E3
:10007000AC36B107D9F710E0ACE6B0E001C01D9294
:10008000A03AB107E1F70E9444070C94E1070C94F1
:100090000000DF93CF93CDB7DEB70E946F030E94BD
:1000A000F401CF91DF910895DF93CF9300D000D07A
:1000B0000F92CDB7DEB79A8389836B835D834C83C0
:1000C0008B81882F90E0880F991F0196880F991FC8
:1000D000FC01EC58FF4F8C819D81918380838B8143
:1000E000882F90E0880F991F880F991FFC01EC580A
:1000F000FF4F89819A81918380830F900F900F9099
:100100000F900F90CF91DF910895DF93CF930F92CF
:10011000CDB7DEB780916C0090916D000196909301
:100120006D0080936C00198228C040916C00509142
:100130006D008981882F90E0880F991F0196880FA4
:10014000991FFC01EC58FF4F20813181CA01B90190
:100150000E94BA07009771F48981882F90E0880F78
:10016000991F880F991FFC01EC58FF4F0190F081F7
:10017000E02D099589818F5F898389818B30A8F271
:100180000F90CF91DF910895DF93CF93CDB7DEB776
:1001900081E080936E00CF91DF910895DF93CF933C
:1001A000CDB7DEB782E068E10E940405CF91DF9110
:1001B0000895DF93CF93CDB7DEB782E06CE30E9462
:1001C0000405CF91DF910895DF93CF93CDB7DEB7CC
:1001D00082E06EE70E940405CF91DF910895DF93DE
:1001E000CF93CDB7DEB782E06FEF0E940405CF91C9
:1001F000DF910895DF93CF93CDB7DEB782E06EE74E
:100200000E940405CF91DF910895DF93CF93CDB77E
:10021000DEB782E06CE30E940405CF91DF91089580
:10022000DF93CF93CDB7DEB782E068E10E9404058B
:10023000CF91DF910895DF93CF93CDB7DEB782E002
:1002400060E00E940405CF91DF910895DF93CF9382
:10025000CDB7DEB780916F008F5F80936F00809184
:100260006F00882F90E0FC01E05AFF4F908180E002
:10027000692F0E94040580916F00882F90E0FC0197
:10028000E05AFF4F80818F3679F480916F00882F7C
:1002900090E0FC01E05AFF4F908180E0692F0E94BE
:1002A00004058FEF80936F00CF91DF910895DF9366
:1002B000CF93CDB7DEB780916A00882F90E0FC0124
:1002C000E05AFF4F80818F3379F480916A00882F44
:1002D00090E0FC01E05AFF4F908181E0692F0E947D
:1002E00004058AE080936A0080916A0081508093BF
:1002F0006A0080916A00882F90E0FC01E05AFF4F6D
:10030000908181E0692F0E940405CF91DF910895CB
:10031000DF93CF93CDB7DEB780917000882371F45F
:1003200081E08093700083E060E041E00E94450539
:1003300083E067E040E00E94450510C080917000B6
:10034000813061F41092700083E060E040E00E9430
:10035000450583E067E041E00E944505CF91DF91CC
:100360000895DF93CF93CDB7DEB7A3E5B0E0E3E523
:10037000F0E080818F7B8C93A3E5B0E0E3E5F0E0D3
:100380008081877F8C93A3E5B0E0E3E5F0E0808196
:100390008F7D8C93A3E5B0E0E3E5F0E080818F7E74
:1003A0008C93A3E5B0E0E3E5F0E0808184608C937A
:1003B000A3E5B0E0E3E5F0E080818D7F8C93A3E5D9
:1003C000B0E0E3E5F0E0808181608C93A9E5B0E0E6
:1003D000E9E5F0E0808181608C93E2E5F0E08BE775
:1003E0008083CF91DF910895DF93CF93CDB7DEB7B0
:1003F000A3E5B0E0E3E5F0E0808180648C93A3E5C1
:10040000B0E0E3E5F0E08081877F8C93A3E5B0E086
:10041000E3E5F0E080818F7D8C93A3E5B0E0E3E538
:10042000F0E080818F7E8C93A3E5B0E0E3E5F0E01F
:1004300080818B7F8C93A3E5B0E0E3E5F0E08081E1
:1004400082608C93A3E5B0E0E3E5F0E08081816019
:100450008C93ECE5F0E08DE78083A9E5B0E0E9E579
:10046000F0E0808182608C93CF91DF910895DF93DB
:10047000CF9300D0CDB7DEB79A83898389819A81E3
:1004800090937300809372000F900F90CF91DF9143
:100490000895DF93CF93CDB7DEB7A3E5B0E0E3E5F2
:1004A000F0E0808180648C93A3E5B0E0E3E5F0E0C8
:1004B000808188608C93A3E5B0E0E3E5F0E0808183
:1004C00080628C93A3E5B0E0E3E5F0E080818F7E6D
:1004D0008C93A3E5B0E0E3E5F0E0808184608C9349
:1004E000A3E5B0E0E3E5F0E080818D7F8C93A3E5A8
:1004F000B0E0E3E5F0E080818E7F8C93A9E5B0E089
:10050000E9E5F0E080818D7F8C93CF91DF910895B4
:10051000DF93CF930F92CDB7DEB78983ECE5F0E0A0
:100520008981482F50E0CA019C01220F331FC90165
:100530009695982F882797958795821B930B840F04
:10054000951F24E630E0B9010E94CE07CB018083DD
:100550000F90CF91DF910895DF93CF93CDB7DEB7A2
:10056000AFE4B0E0EFE4F0E080818D7F8C93AFE406
:10057000B0E0EFE4F0E080818E7F8C93AEE4B0E0F9
:10058000EEE4F0E080818F7E8C93AEE4B0E0EEE4A8
:10059000F0E08081877F8C93AFE4B0E0EFE4F0E09F
:1005A00080818F778C93AFE4B0E0EFE4F0E080815E
:1005B0008F7B8C93AFE4B0E0EFE4F0E080818F7D3F
:1005C0008C93AFE4B0E0EFE4F0E080818F7E8C9319
:1005D000AEE4B0E0EEE4F0E0808184608C93AEE4C1
:1005E000B0E0EEE4F0E080818D7F8C93AEE4B0E08B
:1005F000EEE4F0E080818E7F8C93A9E5B0E0E9E540
:10060000F0E0808181608C93CF91DF9108951F92FB
:100610000F920FB60F9211242F933F934F935F9336
:100620006F937F938F939F93AF93BF93EF93FF93BA
:10063000DF93CF93CDB7DEB7809171008F5F80934A
:100640007100809171008F3151F4E2E5F0E08BE7A9
:10065000808380E060E00E94450610927100CF9197
:10066000DF91FF91EF91BF91AF919F918F917F911A
:100670006F915F914F913F912F910F900FBE0F900F
:100680001F9018951F920F920FB60F9211242F935F
:100690003F934F935F936F937F938F939F93AF930A
:1006A000BF93EF93FF93DF93CF93CDB7DEB7E09186
:1006B0007200F09173000995CF91DF91FF91EF9156
:1006C000BF91AF919F918F917F916F915F914F916A
:1006D0003F912F910F900FBE0F901F901895DF93B1
:1006E000CF93CDB7DEB7AFE5B0E0EFE5F0E08081C6
:1006F00080688C93CF91DF910895DF93CF93CDB72E
:10070000DEB7AFE5B0E0EFE5F0E080818F778C9366
:10071000CF91DF910895DF93CF93CDB7DEB72797C1
:100720000FB6F894DEBF0FBECDBF89836A834B83BB
:100730008B81813009F06FC08981282F30E03F83A1
:100740002E838E819F818130910549F12E813F81D9
:10075000223031052CF48E819F81009761F0D2C048
:100760002E813F812230310571F18E819F8183304E
:100770009105E9F1C7C0AAE3B0E0EAE3F0E08081C7
:10078000482F8A81282F30E081E090E0022E02C0BD
:10079000880F991F0A94E2F7842B8C93B3C0A7E3C8
:1007A000B0E0E7E3F0E08081482F8A81282F30E035
:1007B00081E090E0022E02C0880F991F0A94E2F7B0
:1007C000842B8C939FC0A4E3B0E0E4E3F0E080814D
:1007D000482F8A81282F30E081E090E0022E02C06D
:1007E000880F991F0A94E2F7842B8C938BC0A1E3A6
:1007F000B0E0E1E3F0E08081482F8A81282F30E0EB
:1008000081E090E0022E02C0880F991F0A94E2F75F
:10081000842B8C9377C08B81882309F073C08981E6
:10082000282F30E03D832C838C819D818130910580
:1008300059F12C813D81223031052CF48C819D8130
:10084000009769F05FC02C813D812230310589F12C
:100850008C819D818330910509F440C053C0AAE387
:10086000B0E0EAE3F0E08081482F8A81282F30E071
:1008700081E090E0022E02C0880F991F0A94E2F7EF
:10088000809584238C933EC0A7E3B0E0E7E3F0E0DB
:100890008081482F8A81282F30E081E090E0022E6D
:1008A00002C0880F991F0A94E2F7809584238C93E5
:1008B00029C0A4E3B0E0E4E3F0E08081482F8A811E
:1008C000282F30E081E090E0022E02C0880F991FAF
:1008D0000A94E2F7809584238C9314C0A1E3B0E0DE
:1008E000E1E3F0E08081482F8A81282F30E081E029
:1008F00090E0022E02C0880F991F0A94E2F78095BB
:1009000084238C9327960FB6F894DEBF0FBECDBF1D
:10091000CF91DF910895DF93CF9300D000D00F9255
:10092000CDB7DEB78A836B838A81282F30E03D8381
:100930002C834C815D814130510541F18C819D8139
:100940008230910534F42C813D812115310561F00F
:1009500052C04C815D814230510551F18C819D81A5
:1009600083309105B9F147C0E9E3F0E08081282F99
:1009700030E08B81882F90E0A90102C05595479502
:100980008A95E2F7CA018170898335C0E6E3F0E019
:100990008081282F30E08B81882F90E0A90102C050
:1009A000559547958A95E2F7CA018170898323C0DE
:1009B000E3E3F0E08081282F30E08B81882F90E006
:1009C000A90102C0559547958A95E2F7CA01817041
:1009D000898311C0E0E3F0E08081282F30E08B8133
:1009E000882F90E0A90102C0559547958A95E2F7B6
:1009F000CA018170898389810F900F900F900F90A9
:100A00000F90CF91DF910895DF93CF9300D000D066
:100A1000CDB7DEB789836A838981282F30E03C8394
:100A20002B838B819C8181309105D1F02B813C817E
:100A3000223031052CF48B819C81009761F01EC01F
:100A40002B813C812230310581F08B819C81833068
:100A5000910581F013C0EBE3F0E08A8180830EC042
:100A6000E8E3F0E08A81808309C0E5E3F0E08A8171
:100A7000808304C0E2E3F0E08A8180830F900F90CE
:100A80000F900F90CF91DF910895DF93CF93CDB763
:100A9000DEB727970FB6F894DEBF0FBECDBF8983B0
:100AA0006A834B838B81813009F06FC08981282F45
:100AB00030E03F832E838E819F818130910549F103
:100AC0002E813F81223031052CF48E819F81009749
:100AD00061F0D2C02E813F812230310571F18E81CB
:100AE0009F8183309105E9F1C7C0ABE3B0E0EBE350
:100AF000F0E08081482F8A81282F30E081E090E06B
:100B0000022E02C0880F991F0A94E2F7842B8C935F
:100B1000B3C0A8E3B0E0E8E3F0E08081482F8A8129
:100B2000282F30E081E090E0022E02C0880F991F4C
:100B30000A94E2F7842B8C939FC0A5E3B0E0E5E331
:100B4000F0E08081482F8A81282F30E081E090E01A
:100B5000022E02C0880F991F0A94E2F7842B8C930F
:100B60008BC0A2E3B0E0E2E3F0E08081482F8A810D
:100B7000282F30E081E090E0022E02C0880F991FFC
:100B80000A94E2F7842B8C9377C08B81882309F039
:100B900073C08981282F30E03D832C838C819D8117
:100BA0008130910559F12C813D81223031052CF4A1
:100BB0008C819D81009769F05FC02C813D8122303E
:100BC000310589F18C819D818330910509F440C004
:100BD00053C0ABE3B0E0EBE3F0E08081482F8A81C3
:100BE000282F30E081E090E0022E02C0880F991F8C
:100BF0000A94E2F7809584238C933EC0A8E3B0E08A
:100C0000E8E3F0E08081482F8A81282F30E081E0FE
:100C100090E0022E02C0880F991F0A94E2F7809597
:100C200084238C9329C0A5E3B0E0E5E3F0E0808164
:100C3000482F8A81282F30E081E090E0022E02C008
:100C4000880F991F0A94E2F7809584238C9314C02F
:100C5000A2E3B0E0E2E3F0E08081482F8A81282F10
:100C600030E081E090E0022E02C0880F991F0A94C4
:100C7000E2F7809584238C9327960FB6F894DEBF15
:100C80000FBECDBFCF91DF910895DF93CF9300D0FA
:100C900000D0CDB7DEB789836A838981282F30E001
:100CA0003C832B838B819C818130910549F12B8181
:100CB0003C81223031052CF48B819C81009761F0BE
:100CC0005AC02B813C812230310571F18B819C818E
:100CD00083309105E9F14FC0ABE3B0E0EBE3F0E026
:100CE0008081482F8A81282F30E081E090E0022E19
:100CF00002C0880F991F0A94E2F784278C933BC0A7
:100D0000A8E3B0E0E8E3F0E08081482F8A81282F53
:100D100030E081E090E0022E02C0880F991F0A9413
:100D2000E2F784278C9327C0A5E3B0E0E5E3F0E089
:100D30008081482F8A81282F30E081E090E0022EC8
:100D400002C0880F991F0A94E2F784278C9313C07E
:100D5000A2E3B0E0E2E3F0E08081482F8A81282F0F
:100D600030E081E090E0022E02C0880F991F0A94C3
:100D7000E2F784278C930F900F900F900F90CF91F4
:100D8000DF910895DF93CF9300D000D0CDB7DEB7C9
:100D900089836A838981282F30E03C832B838B8170
:100DA0009C8181309105D1F02B813C81223031052D
:100DB0002CF48B819C81009761F01EC02B813C81BB
:100DC0002230310581F08B819C818330910581F047
:100DD00013C0EAE3F0E08A8180830EC0E7E3F0E02D
:100DE0008A81808309C0E4E3F0E08A81808304C0C3
:100DF000E1E3F0E08A8180830F900F900F900F90D5
:100E0000CF91DF910895DF93CF9300D000D0CDB77D
:100E1000DEB78A838A81282F30E03C832B838B8145
:100E20009C8181309105D1F02B813C8122303105AC
:100E30002CF48B819C81009761F01EC02B813C813A
:100E40002230310581F08B819C818330910581F0C6
:100E500013C0E9E3F0E0808189830EC0E6E3F0E0AF
:100E60008081898309C0E3E3F0E08081898304C045
:100E7000E0E3F0E08081898389810F900F900F90EB
:100E80000F90CF91DF910895DF93CF93CDB7DEB769
:100E900082E06FEF0E94C20680E06FEF0E94C20600
:100EA00080E06FE30E94040581E06FEF0E94C206BC
:100EB00081E06FE60E94040583E060E041E00E946B
:100EC0008B0383E067E041E00E948B0385E890E0BC
:100ED0000E94370286E291E060E048EE53E00E9413
:100EE000540087E591E061E040ED57E00E94540036
:100EF0008EEC90E062E048EB5BE00E94540089EDEC
:100F000090E063E048EB5BE00E94540084EE90E0E8
:100F100064E048EB5BE00E9454008FEE90E065E0F7
:100F200048EB5BE00E9454008AEF90E066E048EBFB
:100F30005BE00E94540085E091E067E048EB5BE0F5
:100F40000E94540080E191E068E048EB5BE00E9481
:100F500054008BE191E069E048EB5BE00E945400B3
:100F600088E891E06AE040E25EE40E9454000E945A
:100F70004900FFCFAA1BBB1B51E107C0AA1FBB1F23
:100F8000A617B70710F0A61BB70B881F991F5A9515
:100F9000A9F780959095BC01CD01089597FB092E86
:100FA00007260AD077FD04D0E5DF06D000201AF42A
:100FB000709561957F4F0895F6F7909581959F4FB5
:060FC0000895F894FFCF34
:0C0FC6003F065B4F666D7D077F6F0900E2
:00000001FF
